:100000000C9446000C9465000C9465000C946500FB
:100010000C9465000C9465000C9465000C946500CC
:100020000C9465000C9465000C9465000C946500BC
:100030000C9465000C94A5010C9465000C9465006B
:100040000C9465000C9465000C9465000C9465009C
:100050000C9465000C9465000C9465000C9465008C
:100060000C9465000C9465000C9465000C9465007C
:100070000C9465000C9465000C9465000C9465006C
:100080000C9465000C9465000C94650011241FBE4F
:10009000CFEFD0E4DEBFCDBF11E0A0E0B1E0E0E9FA
:1000A000FDE000E00BBF02C007900D92A231B10746
:1000B000D9F721E0A2E1B1E001C01D92A232B2075E
:1000C000E1F70E9404050C94C6060C940000CF933F
:1000D000DF9300D01F92CDB7DEB789837B836A831D
:1000E00089818A3031F48A819B81BC018DE00E9434
:1000F000670080EC90E0FC018081882F90E08072A6
:100100009927892BB1F386EC90E02981FC012083AB
:1001100080E090E00F900F900F90DF91CF910895C5
:100120000F931F93CF93DF9300D000D0CDB7DEB7EE
:1001300069837A838B839C8380911C0190911D013C
:10014000A0911E01B0911F019C01AD0169817A81CE
:100150008B819C810E943205882309F477C020E0BE
:1001600030E0A90169817A818B819C810E943205EE
:10017000882351F481E990E021E930E0F901208100
:100180002870FC01208309C081E990E021E930E07A
:10019000F90120812360FC01208328E539E344E74D
:1001A0005FE369817A818B819C810E94320588237B
:1001B00044F488E990E02FEF3FEFFC013183208386
:1001C00034C020E034E244EF56E469817A818B81C7
:1001D0009C810E945406181634F488E990E0FC01D2
:1001E0001182108222C008E910E020E030E040E0F7
:1001F00053E469817A818B819C810E945906DC01DC
:10020000CB019C01AD0160E074E284EF9AE40E94AE
:100210003705DC01CB01BC01CD010E94A905DC0141
:10022000CB010197F8019183808384E990E0FC0180
:100230001182108289819A81AB81BC8180931C01DB
:1002400090931D01A0931E01B0931F0100000F9019
:100250000F900F900F90DF91CF911F910F91089504
:10026000CF93DF93CDB7DEB780E990E020E4FC01C7
:10027000208381E990E02BE0FC01208360E070E0C6
:10028000CB010E9490000000DF91CF910895CF93A1
:10029000DF93CDB7DEB780E990E0FC01108281E901
:1002A00090E0FC0110820000DF91CF910895CF9380
:1002B000DF93CDB7DEB781E890E02BE0FC0120832F
:1002C00088E890E02DE730E0FC01318320838FE661
:1002D00090E022E0FC01208384E890E0FC011182A0
:1002E000108280910E0190910F01A0911001B091A8
:1002F00011018093130190931401A0931501B09301
:1003000016018FE590E02FE530E0F90120812068AB
:10031000FC0120830000DF91CF910895CF93DF93FC
:10032000CDB7DEB781E890E0FC0110820000DF91DC
:10033000CF910895CF93DF93CDB7DEB781E080935F
:1003400012010000DF91CF9108951F920F9200904B
:100350005F000F92112400905B000F922F933F9348
:100360004F935F936F937F938F939F93AF93BF93BD
:10037000EF93FF93CF93DF93CDB7DEB78091130157
:1003800090911401A0911501B09116010197A10956
:10039000B1098093130190931401A0931501B093B8
:1003A00016018091130190911401A0911501B09153
:1003B0001601892B8A2B8B2B91F40E949A01809134
:1003C0000E0190910F01A0911001B0911101809345
:1003D000130190931401A0931501B093160100002E
:1003E000DF91CF91FF91EF91BF91AF919F918F914D
:1003F0007F916F915F914F913F912F910F9000925C
:100400005B000F9000925F000F901F901895CF93A4
:10041000DF9300D000D0CDB7DEB769837A838B83BA
:100420009C8389819A81AB81BC8180930E019093DA
:100430000F01A0931001B093110180910E019091D2
:100440000F01A0911001B0911101809313019093BD
:100450001401A0931501B093160100000F900F90A6
:100460000F900F90DF91CF910895CF93DF93CDB789
:10047000DEB7809120019091210182309105D1F168
:100480008330910528F4009779F00197C9F0A5C051
:100490008430910509F475C08430910508F46AC070
:1004A000059709F475C099C081E090E0909321010F
:1004B0008093200160E070E0CB010E9490008DC02D
:1004C00080E290E0FC018081882F90E080959095FB
:1004D00087709927019739F482E090E09093210189
:1004E000809320017AC081E090E090932101809375
:1004F000200173C080E290E0FC018081882F90E0B1
:100500008095909587709927019739F481E090E064
:10051000909321018093200160C080E290E0FC0173
:100520008081882F90E08095909587709927029719
:1005300039F483E090E090932101809320014DC035
:1005400080E290E0FC018081882F90E0809590957A
:1005500087709927049739F484E090E09093210103
:10056000809320013AC082E090E090932101809333
:10057000200133C085E090E0909321018093200119
:100580002CC085E090E0909321018093200125C04C
:1005900080E290E0FC018081882F90E0809590952A
:1005A00087709927892B91F480911B01882339F05A
:1005B00082E090E090932101809320010DC081E0C2
:1005C00090E0909321018093200106C085E090E0A7
:1005D000909321018093200100008091200190914F
:1005E00021018230910521F18330910530F400978B
:1005F00009F401C2019741F003C28430910509F466
:1006000011C1049728F1FCC110921B0160E070E059
:10061000CB010E94900084EA90EDA2E8B3E48093BD
:10062000170190931801A0931901B0931A01E8C122
:1006300081E080931B018091170190911801A09196
:100640001901B0911A01BC01CD010E949000D8C1DE
:100650008091170190911801A0911901B0911A0190
:1006600024EA30ED42E853E4BC01CD010E9432059A
:10067000882369F48BE794EDA2E9B3E48093170132
:1006800090931801A0931901B0931A01B9C08091F9
:10069000170190911801A0911901B0911A012BE74F
:1006A00034ED42E953E4BC01CD010E9432058823B8
:1006B00069F484EA90EDA4EAB3E48093170190937F
:1006C0001801A0931901B0931A019AC080911701E3
:1006D00090911801A0911901B0911A0124EA30ED0E
:1006E00044EA53E4BC01CD010E943205882369F439
:1006F00081E79DE9AEEAB3E4809317019093180176
:10070000A0931901B0931A017BC0809117019091B9
:100710001801A0911901B0911A0121E73DE94EEAB3
:1007200053E4BC01CD010E943205882369F480E0C6
:1007300090E0A4ECB3E48093170190931801A09388
:100740001901B0931A015CC08091170190911801B2
:10075000A0911901B0911A0120E030E044EC53E47B
:10076000BC01CD010E943205882369F480E090E04D
:10077000ACEDB3E48093170190931801A093190195
:10078000B0931A013DC08091170190911801A0917A
:100790001901B0911A0120E030E04CED53E4BC01A6
:1007A000CD010E943205882369F484EA90EFA6EF18
:1007B000B3E48093170190931801A0931901B093AB
:1007C0001A011EC08091170190911801A091190182
:1007D000B0911A0124EA30EF46EF53E4BC01CD0199
:1007E0000E943205882361F480E090EDA2E0B4E439
:1007F0008093170190931801A0931901B0931A01E7
:1008000080911B01882309F4F8C080911701909111
:100810001801A0911901B0911A01BC01CD010E94EB
:100820009000EBC08091170190911801A0911901DF
:10083000B0911A0120E030ED42E054E4BC01CD015A
:100840000E943205882369F484EA90EFA6EFB3E4AE
:100850008093170190931801A0931901B0931A0186
:10086000B9C08091170190911801A0911901B09120
:100870001A0124EA30EF46EF53E4BC01CD010E9497
:100880003205882369F480E090E0ACEDB3E4809316
:10089000170190931801A0931901B0931A019AC0FF
:1008A0008091170190911801A0911901B0911A013E
:1008B00020E030E04CED53E4BC01CD010E94320554
:1008C000882369F480E090E0A4ECB3E480931701FE
:1008D00090931801A0931901B0931A017BC08091E5
:1008E000170190911801A0911901B0911A0120E00F
:1008F00030E044EC53E4BC01CD010E943205882372
:1009000069F481E79DE9AEEAB3E48093170190931F
:100910001801A0931901B0931A015CC080911701CE
:1009200090911801A0911901B0911A0121E73DE9B8
:100930004EEA53E4BC01CD010E943205882369F4DC
:1009400084EA90EDA4EAB3E4809317019093180130
:10095000A0931901B0931A013DC0809117019091A5
:100960001801A0911901B0911A0124EA30ED44EA6E
:1009700053E4BC01CD010E943205882369F48BE762
:1009800094EDA2E9B3E48093170190931801A0932A
:100990001901B0931A011EC080911701909118019E
:1009A000A0911901B0911A012BE734ED42E953E40B
:1009B000BC01CD010E943205882361F484EA90EDE8
:1009C000A2E8B3E48093170190931801A093190152
:1009D000B0931A0180911B01882389F0809117013F
:1009E00090911801A0911901B0911A01BC01CD019B
:1009F0000E94900004C0000003C0000001C000007D
:100A00000000DF91CF910895CF93DF93CDB7DEB78C
:100A100081E290E0FC01108282E290E02FEFFC0185
:100A2000208384E290E02FEFFC01208385E290E0B8
:100A3000FC01108210922101109220010E943001CD
:100A400062E370E080E090E00E9407020E9457019C
:100A50000E9435020000809112018823E1F3109278
:100A60001201F6CF0E94DF0508F481E008950E948C
:100A70004B050C941A060E94130658F00E940C06AF
:100A800040F029F45F3F29F00C94030651110C94B7
:100A90004E060C9409060E942B0668F39923B1F3C5
:100AA000552391F3951B550BBB27AA276217730794
:100AB000840738F09F5F5F4F220F331F441FAA1F28
:100AC000A9F335D00E2E3AF0E0E832D091505040E4
:100AD000E695001CCAF72BD0FE2F29D0660F771F92
:100AE000881FBB1F261737074807AB07B0E809F078
:100AF000BB0B802DBF01FF2793585F4F3AF09E3FFD
:100B0000510578F00C9403060C944E065F3FE4F315
:100B1000983ED4F3869577956795B795F7959F5F3F
:100B2000C9F7880F911D9695879597F90895E1E08B
:100B3000660F771F881FBB1F621773078407BA07EA
:100B400020F0621B730B840BBA0BEE1F88F7E09545
:100B500008950E94B0056894B1110C944E06089552
:100B60000E94330688F09F5798F0B92F9927B75104
:100B7000B0F0E1F0660F771F881F991F1AF0BA9541
:100B8000C9F714C0B13091F00E944D06B1E008954C
:100B90000C944D06672F782F8827B85F39F0B93F3E
:100BA000CCF3869577956795B395D9F73EF49095F4
:100BB0008095709561957F4F8F4F9F4F0895990F46
:100BC0000008550FAA0BE0E8FEEF16161706E80717
:100BD000F907C0F012161306E407F50798F0621B38
:100BE000730B840B950B39F40A2661F0232B242B0D
:100BF000252B21F408950A2609F4A140A6958FEF2C
:100C0000811D811D089597F99F6780E870E060E07D
:100C100008959FEF80EC089500240A941616170695
:100C200018060906089500240A94121613061406DD
:100C300005060895092E0394000C11F4882352F040
:100C4000BB0F40F4BF2B11F460FF04C06F5F7F4FF8
:100C50008F4F9F4F089557FD9058440F551F59F0DF
:100C60005F3F71F04795880F97FB991F61F09F3F99
:100C700079F087950895121613061406551FF2CFC2
:100C80004695F1DF08C0161617061806991FF1CF12
:100C900086957105610508940895E894BB27662739
:100CA0007727CB0197F908950E94DF0508F48FEFAD
:100CB00008950E946C060C941A060E940C0638F0E7
:100CC0000E94130620F0952311F00C9403060C9457
:100CD000090611240C944E060E942B0670F3959F72
:100CE000C1F3950F50E0551F629FF001729FBB2723
:100CF000F00DB11D639FAA27F00DB11DAA1F649FBF
:100D00006627B00DA11D661F829F2227B00DA11D71
:100D1000621F739FB00DA11D621F839FA00D611DF7
:100D2000221F749F3327A00D611D231F849F600D18
:100D3000211D822F762F6A2F11249F5750409AF041
:100D4000F1F088234AF0EE0FFF1FBB1F661F771FCD
:100D5000881F91505040A9F79E3F510580F00C9498
:100D600003060C944E065F3FE4F3983ED4F3869559
:100D700077956795B795F795E7959F5FC1F7FE2B38
:100D8000880F911D9695879597F90895F894FFCF50
:100D900000000002000000006700000000000100E9
:020DA000000051
:00000001FF
