:100000000C9446000C9465000C9465000C946500FB
:100010000C9465000C9465000C9465000C946500CC
:100020000C9465000C9465000C9465000C946500BC
:100030000C9465000C94A5010C9465000C9465006B
:100040000C9465000C9465000C9465000C9465009C
:100050000C9465000C9465000C9465000C9465008C
:100060000C9465000C9465000C9465000C9465007C
:100070000C9465000C9465000C9465000C9465006C
:100080000C9465000C9465000C94650011241FBE4F
:10009000CFEFD0E4DEBFCDBF11E0A0E0B1E0E0E4FF
:1000A000FBE000E00BBF02C007900D92A231B10748
:1000B000D9F721E0A2E1B1E001C01D92AF31B20752
:1000C000E1F70E94DC030C949E050C940000CF9392
:1000D000DF9300D01F92CDB7DEB789837B836A831D
:1000E00089818A3031F48A819B81BC018DE00E9434
:1000F000670080EC90E0FC018081882F90E08072A6
:100100009927892BB1F386EC90E02981FC012083AB
:1001100080E090E00F900F900F90DF91CF910895C5
:100120000F931F93CF93DF9300D000D0CDB7DEB7EE
:1001300069837A838B839C838091190190911A0142
:10014000A0911B01B0911C019C01AD0169817A81D4
:100150008B819C810E940A04882309F477C020E0E7
:1001600030E0A90169817A818B819C810E940A0417
:10017000882351F481E990E021E930E0F901208100
:100180002870FC01208309C081E990E021E930E07A
:10019000F90120812360FC01208328E539E344E74D
:1001A0005FE369817A818B819C810E940A048823A4
:1001B00044F488E990E02FEF3FEFFC013183208386
:1001C00034C020E034E244EF56E469817A818B81C7
:1001D0009C810E942C05181634F488E990E0FC01FB
:1001E0001182108222C008E910E020E030E040E0F7
:1001F00053E469817A818B819C810E943105DC0105
:10020000CB019C01AD0160E074E284EF9AE40E94AE
:100210000F04DC01CB01BC01CD010E948104DC0193
:10022000CB010197F8019183808384E990E0FC0180
:100230001182108289819A81AB81BC8180931901DE
:1002400090931A01A0931B01B0931C0100000F9022
:100250000F900F900F90DF91CF911F910F91089504
:10026000CF93DF93CDB7DEB780E990E020E4FC01C7
:10027000208381E990E02BE0FC01208360E070E0C6
:10028000CB010E9490000000DF91CF910895CF93A1
:10029000DF93CDB7DEB780E990E0FC01108281E901
:1002A00090E0FC0110820000DF91CF910895CF9380
:1002B000DF93CDB7DEB781E890E02BE0FC0120832F
:1002C00088E890E02DE730E0FC01318320838FE661
:1002D00090E022E0FC01208384E890E0FC011182A0
:1002E000108280910E0190910F01A0911001B091A8
:1002F00011018093130190931401A0931501B09301
:1003000016018FE590E02FE530E0F90120812068AB
:10031000FC0120830000DF91CF910895CF93DF93FC
:10032000CDB7DEB781E890E0FC0110820000DF91DC
:10033000CF910895CF93DF93CDB7DEB781E080935F
:1003400012010000DF91CF9108951F920F9200904B
:100350005F000F92112400905B000F922F933F9348
:100360004F935F936F937F938F939F93AF93BF93BD
:10037000EF93FF93CF93DF93CDB7DEB78091130157
:1003800090911401A0911501B09116010197A10956
:10039000B1098093130190931401A0931501B093B8
:1003A00016018091130190911401A0911501B09153
:1003B0001601892B8A2B8B2B91F40E949A01809134
:1003C0000E0190910F01A0911001B0911101809345
:1003D000130190931401A0931501B093160100002E
:1003E000DF91CF91FF91EF91BF91AF919F918F914D
:1003F0007F916F915F914F913F912F910F9000925C
:100400005B000F9000925F000F901F901895CF93A4
:10041000DF9300D000D0CDB7DEB769837A838B83BA
:100420009C8389819A81AB81BC8180930E019093DA
:100430000F01A0931001B093110180910E019091D2
:100440000F01A0911001B0911101809313019093BD
:100450001401A0931501B093160100000F900F90A6
:100460000F900F90DF91CF910895CF93DF93CDB789
:10047000DEB780911D0190911E0182309105D1F16E
:100480008330910528F4009779F00197C9F0ACC04A
:100490008430910509F47EC08430910508F46AC067
:1004A000059709F487C0A0C081E090E090931E01F9
:1004B00080931D0160E070E0CB010E94900094C029
:1004C00080E290E0FC018081882F90E080959095FB
:1004D00087709927019739F482E090E090931E018C
:1004E00080931D0181C081E090E090931E01809374
:1004F0001D017AC080E290E0FC018081882F90E0AD
:100500008095909587709927019739F481E090E064
:1005100090931E0180931D0167C080E290E0FC0172
:100520008081882F90E08095909587709927029719
:1005300039F483E090E090931E0180931D0154C034
:1005400080E290E0FC018081882F90E0809590957A
:1005500087709927049739F484E090E090931E0106
:1005600080931D0141C082E090E090931E01809332
:100570001D013AC080911701883028F4809117013D
:100580008F5F8093170185E090E090931E01809328
:100590001D012AC080911701823028F08091170137
:1005A0008F5F8093170185E090E090931E01809308
:1005B0001D011AC080E290E0FC018081882F90E04C
:1005C0008095909587709927892B39F481E090E088
:1005D00090931E0180931D0106C085E090E09093EA
:1005E0001E0180931D01000080911D0190911E014C
:1005F00082309105D1F08330910530F4009709F4F1
:10060000D2C0019741F0D4C08430910509F473C081
:100610000497C0F0CDC01092180160E070E0CB01EB
:100620000E94900010921701C3C081E080931801CE
:1006300081E08093170164EA70ED82E893E40E9400
:100640009000B6C080911701813039F464EA70EDF2
:1006500082E893E40E949000A8C080911701823044
:1006600039F46BE774ED82E993E40E9490009DC039
:1006700080911701833039F464EA70ED84EA93E4E1
:100680000E94900092C080911701843039F461E794
:100690007DE98EEA93E40E94900087C08091170163
:1006A000853039F460E070E084EC93E40E949000BF
:1006B0007CC080911701863039F460E070E08CEDE9
:1006C00093E40E94900071C080911701873039F443
:1006D00064EA70EF86EF93E40E94900066C0809118
:1006E0001701883009F061C060E070ED82E094E4A9
:1006F0000E9490005AC080911701813039F464EA59
:1007000070ED82E893E40E94900051C0809117013F
:10071000823039F46BE774ED82E993E40E94900033
:1007200046C080911701833039F464EA70ED84EAA1
:1007300093E40E9490003BC080911701843039F40B
:1007400061E77DE98EEA93E40E94900030C08091D9
:100750001701853039F460E070E084EC93E40E9486
:10076000900025C080911701863039F460E070E078
:100770008CED93E40E9490001AC08091170187309D
:1007800039F464EA70EF86EF93E40E9490000FC0A2
:1007900080911701883059F460E070ED82E094E4B4
:1007A0000E94900004C0000003C0000001C00000CF
:1007B0000000DF91CF910895CF93DF93CDB7DEB7DF
:1007C00081E290E0FC01108282E290E02FEFFC01D8
:1007D000208384E290E02FEFFC01208385E290E00B
:1007E000FC01108210921E0110921D010E94300126
:1007F00062E370E080E090E00E9407020E945701EF
:100800000E9435020000809112018823E1F31092CA
:100810001201F6CF0E94B70408F481E008950E9407
:1008200023040C94F2040E94EB0458F00E94E404A8
:1008300040F029F45F3F29F00C94DB0451110C9433
:1008400026050C94E1040E94030568F39923B1F393
:10085000552391F3951B550BBB27AA2762177307E6
:10086000840738F09F5F5F4F220F331F441FAA1F7A
:10087000A9F335D00E2E3AF0E0E832D09150504036
:10088000E695001CCAF72BD0FE2F29D0660F771FE4
:10089000881FBB1F261737074807AB07B0E809F0CA
:1008A000BB0B802DBF01FF2793585F4F3AF09E3F4F
:1008B000510578F00C94DB040C9426055F3FE4F3BB
:1008C000983ED4F3869577956795B795F7959F5F92
:1008D000C9F7880F911D9695879597F90895E1E0DE
:1008E000660F771F881FBB1F621773078407BA073D
:1008F00020F0621B730B840BBA0BEE1F88F7E09598
:1009000008950E9488046894B1110C9426050895F6
:100910000E940B0588F09F5798F0B92F9927B7517F
:10092000B0F0E1F0660F771F881F991F1AF0BA9593
:10093000C9F714C0B13091F00E942505B1E00895C7
:100940000C942505672F782F8827B85F39F0B93FB9
:10095000CCF3869577956795B395D9F73EF4909546
:100960008095709561957F4F8F4F9F4F0895990F98
:100970000008550FAA0BE0E8FEEF16161706E80769
:10098000F907C0F012161306E407F50798F0621B8A
:10099000730B840B950B39F40A2661F0232B242B5F
:1009A000252B21F408950A2609F4A140A6958FEF7E
:1009B000811D811D089597F99F6780E870E060E0D0
:1009C00008959FEF80EC089500240A9416161706E8
:1009D00018060906089500240A9412161306140630
:1009E00005060895092E0394000C11F4882352F093
:1009F000BB0F40F4BF2B11F460FF04C06F5F7F4F4B
:100A00008F4F9F4F089557FD9058440F551F59F031
:100A10005F3F71F04795880F97FB991F61F09F3FEB
:100A200079F087950895121613061406551FF2CF14
:100A30004695F1DF08C0161617061806991FF1CF64
:100A400086957105610508940895E894BB2766278B
:100A50007727CB0197F908950E94B70408F48FEF28
:100A600008950E9444050C94F2040E94E40438F0B6
:100A70000E94EB0420F0952311F00C94DB040C94FD
:100A8000E10411240C9426050E94030570F3959F40
:100A9000C1F3950F50E0551F629FF001729FBB2775
:100AA000F00DB11D639FAA27F00DB11DAA1F649F11
:100AB0006627B00DA11D661F829F2227B00DA11DC4
:100AC000621F739FB00DA11D621F839FA00D611D4A
:100AD000221F749F3327A00D611D231F849F600D6B
:100AE000211D822F762F6A2F11249F5750409AF094
:100AF000F1F088234AF0EE0FFF1FBB1F661F771F20
:100B0000881F91505040A9F79E3F510580F00C94EA
:100B1000DB040C9426055F3FE4F3983ED4F38695FE
:100B200077956795B795F795E7959F5FC1F7FE2B8A
:100B3000880F911D9695879597F90895F894FFCFA2
:100B4000000000020000000067000000000001003B
:020B50000000A3
:00000001FF
